:100000000C94EA010C9412020C9412020C94120249
:100010000C9412020C9412020C9412020C94120210
:100020000C9412020C9412020C9412020C94120200
:100030000C9412020C9412020C9412020C941202F0
:100040000C94CD190C9412020C943D1A0C94171AAE
:100050000C9412020C9412020C9412020C941202D0
:100060000C94FE060C941202F812FB12FE120113FD
:1000700004130F132113241327132A1369136C136A
:100080006F137213751329152F15D715AB15A315FB
:10009000FC15D316D316D316D316D316D316D316F0
:1000A000D316D3163F1658164F505F545852585017
:1000B000454E442C206E6F742073656E64696E67C4
:1000C000005061636B65742071756575656400002F
:1000D000000000230026002900FF0605040302019A
:1000E0000900FFA027BE33E034C1332042C433A14E
:1000F00027BE33E134C1332142C433556E6B6E6F7A
:10010000776E206576656E740045565F4C494E4BA0
:100110005F414C4956450045565F4C494E4B5F4444
:100120004541440045565F5258434F4D504C45544D
:10013000450045565F52455345540045565F4C4F68
:1001400053545F5453594E430020627974657320B1
:100150006F66207061796C6F6164005265636569D8
:100160007665642000526563656976656420616325
:100170006B0045565F5458434F4D504C45544520F5
:1001800028696E636C756465732077616974696E44
:100190006720666F722052582077696E646F77739C
:1001A000290045565F52454A4F494E5F4641494CEA
:1001B00045440045565F4A4F494E5F4641494C45CC
:1001C000440045565F524655310045565F4A4F49F7
:1001D0004E45440045565F4A4F494E494E470045FB
:1001E000565F424541434F4E5F545241434B454455
:1001F0000045565F424541434F4E5F4D495353457D
:10020000440045565F424541434F4E5F464F554E71
:10021000440045565F5343414E5F54494D454F5549
:1002200054002020200E11140C0F12090C0F060987
:100230000C030609000306140E0B0805020000005B
:1002400000000000000000000400000002000000A8
:1002500001000080000000400000002000000010AD
:1002600000000005000000C0400000000000670022
:10027000CC00B80154039D070000000100010001FB
:10028000000000000000240027002A0000000000F9
:10029000250028002B0004040404040404040202C2
:1002A00002020202030303030303010204081020F5
:1002B0004080010204081020010204081020000000
:1002C0000008000201000003040700000000000015
:1002D0000000637C777BF26B6FC53001672BFED724
:1002E000AB76CA82C97DFA5947F0ADD4A2AF9CA4BF
:1002F00072C0B7FD9326363FF7CC34A5E5F171D82F
:10030000311504C723C31896059A071280E2EB271C
:10031000B27509832C1A1B6E5AA0523BD6B329E33F
:100320002F8453D100ED20FCB15B6ACBBE394A4C1F
:1003300058CFD0EFAAFB434D338545F9027F503C9F
:100340009FA851A3408F929D38F5BCB6DA2110FFCB
:10035000F3D2CD0C13EC5F974417C4A77E3D645DC8
:10036000197360814FDC222A908846EEB814DE5E55
:100370000BDBE0323A0A4906245CC2D3AC629195A9
:10038000E479E7C8376D8DD54EA96C56F4EA657AE5
:10039000AE08BA78252E1CA6B4C6E8DD741F4BBD86
:1003A0008B8A703EB5664803F60E613557B986C133
:1003B0001D9EE1F8981169D98E949B1E87E9CE5550
:1003C00028DF8CA1890DBFE6426841992D0FB054FA
:1003D000BB160B2811241FBECFEFD8E0DEBFCDBF68
:1003E00026E0A6E0B2E001C01D92A932B207E1F713
:1003F00012E0A0E0B1E0EEE8FCE502C005900D924D
:10040000A630B107D9F711E0CAEED1E004C02197B8
:10041000FE010E942E2AC93ED107C9F70E94772605
:100420000C94452E0C94000085ED8093BC008091C7
:10043000BC0084FDFCCF1092DE02089540916B0257
:10044000262F30E0240F311D21323105DCF42091BC
:10045000DE022430C9F4FC0180E090E0861758F4F5
:1004600030916B022191DC01A55BBD4FA30FB11D43
:100470002C930196F3CF80916B02680F60936B020F
:1004800080E0089581E0089582E00895E091E5021A
:10049000F091E602309729F01092E0021092DF020C
:1004A00009940895CF93DF93AC01E091E302F091BA
:1004B000E4023097F1F09091E2028091E102981706
:1004C000C0F090E0292F30E02617370754F4D90107
:1004D000A55DBD4FEA01C20FD31F28812C939F5FFA
:1004E000F1CF1092E2026093E102CB01DF91CF9154
:1004F0000994DF91CF9108950895E091E2028091EF
:10050000E102E81730F4F0E0E55DFD4F808190E016
:1005100008958FEF9FEF08959091E2028091E1029C
:10052000981750F4E92FF0E0E55DFD4F208130E0B1
:100530009F5F9093E20202C02FEF3FEFC901089541
:100540008091E10290E02091E202821B91090895DE
:10055000CF93DF93CB01EA01642F0E941E02CE01EC
:10056000DF91CF910895CF93DF931F92CDB7DEB780
:10057000698361E0CE0101960E941E0281E090E055
:100580000F90DF91CF910895089580E090E0089555
:100590007F928F929F92AF92BF92CF92DF92EF9213
:1005A000FF920F931F93CF93DF93809101018823D4
:1005B00009F44CC08091E10290E02091E202821B9C
:1005C0009109019709F042C08BE196E00E948C02EC
:1005D0008033C1F18133C1F5E0918C05F0918D0537
:1005E00082E08083E0918805F09189051082E09196
:1005F0008A05F0918B0580E1808310929405E0914B
:100600009005F091910586E08083E0918E05F09150
:100610008F05808180618083E0918E05F0918F0548
:10062000808188608083E0918E05F0918F058081C4
:1006300080688083E0918E05F0918F0580818F7DA9
:10064000808302C00E9442241092010137EC832E65
:1006500032E0932EC7E2D2E005E311E077247394F1
:100660004CEBC42E44E0D42E5FEBA52E52E0B52E09
:100670008091E10290E02091E202821B9109409179
:10068000F0023091000120912A021816190664F434
:1006900041110AC03323B9F08BE196E00E948C022D
:1006A00080932A02109200018091E10290E0209153
:1006B000E202821B910902970CF4F4C08091F002CF
:1006C0008111B5C0EFC02236F1F1233609F472C0B2
:1006D0002136D9F68CE291E00E94CC2227EBE22E63
:1006E00022E0F22E8BE196E00E948C02809327029A
:1006F0008BE196E00E948C028093280210922902DE
:1007000040E150E060E070E087E292E00E944A2819
:10071000F70161937F011F926F931F930F93DF93F4
:10072000CF930E94922B87E292E00E94CC220F90FE
:100730000F900F900F900F900F90AE14BF0491F692
:100740007092000171C08BE391E00E94CC229FEB7C
:10075000E92E92E0F92E8BE196E00E948C028093C4
:1007600027028BE196E00E948C028093280210926F
:10077000290240E150E060E070E087E292E00E94F0
:100780004A28F70161937F011F926F931F930F9384
:10079000DF93CF930E94922B87E292E00E94CC22BB
:1007A0000F900F900F900F900F900F908E149F044A
:1007B00091F6C6CF84E491E00E94CC228CEAE82E28
:1007C00084E0F82E8BE196E00E948C028093270251
:1007D0008BE196E00E948C028093280210922902FD
:1007E00040E150E060E070E087E292E00E944A2839
:1007F000F70161937F011F926F931F930F93DF9314
:10080000CF930E94922B87E292E00E94CC220F901D
:100810000F900F900F900F900F90CE14DF0491F671
:10082000709200017092F0020E94652221CF8BE14C
:1008300096E00E948C02C09709F036CF8091E102C9
:100840009091E202891B809326028DE491E00E9440
:10085000CC226091260270E080E090E04AE00E94A5
:1008600089220E9465228BE591E00E94CC22C6E09D
:10087000D2E08091260290E09E0126503240281757
:1008800039076CF48BE196E00E948C028993682F03
:1008900070E080E090E040E10E948922EACF0E946F
:1008A000652202CFDF91CF911F910F91FF90EF90C2
:1008B000DF90CF90BF90AF909F908F907F900895E2
:1008C0001F93CF93DF93C091B603D091B703C7FFB7
:1008D00003C088EA90E020C0109126021533D0F4BE
:1008E000412F50E066E072E088EC93E00E94892B93
:1008F0001092C60381E08093C5031093C703CE0115
:1009000088609093B7038093B603C2FF10924E04A1
:100910000E94D50981EC90E0DF91CF911F910C945A
:100920006B22FC01608171818281938108959F9285
:10093000AF92BF92CF92DF92EF92FF920F931F93ED
:10094000CF93DF938091B60281508093B6028111DC
:100950006BC078948091E702882309F442C0C3EB0E
:10096000D2E005E011E0C12CAA24A394D880ED2C9C
:10097000F12CF80121918F0130E0F901E254FD4F93
:100980008491F901E655FD4FB490F901EA56FD4F07
:1009900094909920A1F081110E948425E92DF0E026
:1009A000EE0FFF1FE153FF4FA591B491EC91BE22D2
:1009B00031E020E009F430E0832F922F02C080E084
:1009C00090E0E816F90639F0DA24D882DD2019F033
:1009D0008C2D0E946F1AC3942196F3E0CF12C6CFDC
:1009E00023C081E00E948C0887FF06C082E10E943C
:1009F0008C08887C59F418C08FE30E948C088C7096
:100A000029F48EE30E948C0882FF0EC080E0DF9103
:100A1000CF911F910F91FF90EF90DF90CF90BF90FB
:100A2000AF909F900C946F1ADF91CF911F910F910F
:100A3000FF90EF90DF90CF90BF90AF909F90089580
:100A4000F8948091B6028F5F8093B60208950E9459
:100A50001826DC01CB0124E0B695A79597958795DC
:100A60002A95D1F73091B202232F2B272870230F1C
:100A70002093B202BC01CD01922B0895CF92DF9258
:100A8000EF92FF926B017C010E942705C61AD70ADC
:100A9000E80AF90A89EEC81683E0D806E104F104F1
:100AA0006CF060E170E080E090E00E943D2688EE0E
:100AB000C81A83E0D80AE108F108ECCF1C141D0421
:100AC0001E041F046CF484E0CC0CDD1C8A95E1F755
:100AD000C601880F991F880F991F05970197F1F795
:100AE000FF90EF90DF90CF9008958EBD00000DB481
:100AF00007FEFDCF8EB50895811106C0209119061D
:100B000090911A062CBD9DBD682F8AE00C94AD25EE
:100B100008958F929F92AF92BF92CF92DF92EF9201
:100B2000FF920F931F93CF93DF93CDB7DEB76097FC
:100B30000FB6F894DEBF0FBECDBF7B018A01282F10
:100B400030E0277F2230310549F02430310509F4A7
:100B50009CC0232B09F0B0C0D12C79C083FD0CC000
:100B600087EC92E00E94D12230E1832ECE010196E3
:100B70006C0147E8942E45C080E1E7ECF2E0DF012C
:100B80001D928A95E9F7F0CFFC012191CF013C91AC
:100B900023272D934F5F7F01015011094031E1F16F
:100BA0000115110589F7E42FF0E0E953FD4F80812D
:100BB0008058808301E0D601E82D1D92EA95E9F77F
:100BC000C6010E94D12219811078C6010E94C92352
:100BD000112319F088898925888B011122C0F6011B
:100BE0008191D5019C9189278D935D01B7EDAB165D
:100BF000B2E0BB06A9F700E010E087EC92E00E94AB
:100C0000D12201151105C1F0C70127ECA22E22E067
:100C1000B22ED50140E0B8CF0115110571F700E003
:100C2000CACF19811078C6010E94C9231123B9F2D5
:100C300088898925888BD3CF6091C7027091C802BB
:100C40008091C9029091CA020E94342A38C08D2D29
:100C500090E08017910780F58E0D9F1D0E94D12294
:100C6000E0E1DE0EF4CF0115110551F08D91908178
:100C700089278193015011097F01E217F30799F742
:100C80008091D6028F5F8093D60201151105A1F0E5
:100C900080E1E7ECF2E0DE01119601900D928A9579
:100CA000E1F7CE0101960E94D122DE011196F701F3
:100CB0009701205F3F4FDACF60E070E0CB01609694
:100CC0000FB6F894DEBF0FBECDBFDF91CF911F915D
:100CD0000F91FF90EF90DF90CF90BF90AF909F90DB
:100CE0008F900895CF93DF9300D000D0CDB7DEB7BB
:100CF000FB013C969B01205F3F4FDE0111969191D5
:100D00009D932E173F07D9F799812A8129832B813B
:100D10002A832C812B839C839E012B5F3F4FDE0116
:100D200011969C91E92FE295EF7040E1E49FF0016C
:100D30001124EE52FD4F9F70E90FF11DE491ED93E8
:100D4000A217B30771F791E04BE1813041F0592FC1
:100D50005078990F503809F494278150F6CF898143
:100D60009827998394E0FE013196DB014C918081B4
:100D700084278D9381932E173F07C1F791506C5FA5
:100D80007F4F9111F0CF0F900F900F900F90DF9148
:100D9000CF910895ECE6F5E0848195819483968166
:100DA00095839781968387838085928590878287B4
:100DB0008185938591878387878596859787958594
:100DC00096879485958784870895CF932CE635E0A0
:100DD000BC01605F7F4FDC01F90140E05D91C081A3
:100DE0005C2750834F5F34964430C1F72F5F3F4FED
:100DF00004966817790779F7CF9108951F920F929B
:100E00000FB60F9211242F933F934F935F936F93DD
:100E10007F938F939F93AF93BF93EF93FF938091B3
:100E2000B900887F803609F49CC068F5883209F4DF
:100E30005BC090F4803109F454C038F4882309F47D
:100E4000F6C0883009F44DC0F6C0883109F44CC0B2
:100E5000803209F45DC0EFC0803409F468C048F402
:100E6000803309F455C0883309F0E5C080938E02C1
:100E7000D8C0803509F44FC0883509F45DC0883486
:100E800009F0D9C0D6C0883909F4C7C0A8F488379A
:100E900009F467C038F4883609F463C0803709F470
:100EA00060C0C9C0883809F4B8C0803909F45FC08F
:100EB000803809F0C0C05BC0803B09F486C038F4BC
:100EC000803A09F466C0883A09F47FC0B4C0803C17
:100ED00009F4A7C0883C09F4A4C0883B09F48AC07F
:100EE000AAC08091B10210C09091B0028091AF026F
:100EF000981770F5E091B00281E08E0F8093B002F8
:100F0000F0E0E157FD4F80818093BB0085EC86C007
:100F100080938E028EC0E091B00281E08E0F8093AC
:100F2000B0028091BB00F0E0E157FD4F80839091CB
:100F3000B0028091AF026EC0E091B00281E08E0FEE
:100F40008093B0028091BB00F0E0E157FD4F8083B9
:100F50008091DD0281116DC081E08093DC0284EA22
:100F600061C083E08093DE0210928D02CFCF80912A
:100F70008D02803208F051C0E0918D0281E08E0F29
:100F800080938D028091BB00F0E0E359FD4F808398
:100F9000BDCF85EC8093BC001092DE0280918D0263
:100FA000803230F4E0918D02F0E0E359FD4F108281
:100FB00060918D0270E0E091D802F091D9028DE647
:100FC00092E0099510928D0236C084E08093DE0293
:100FD00010926C0210926B02E091DA02F091DB0247
:100FE000099580916B02811105C081E080936B02AD
:100FF00010924B02E0916C0281E08E0F80936C02A4
:10100000F0E0E55BFD4F80818093BB0090916C0226
:1010100080916B02981708F479CF85E88093BC0023
:101020000AC085EC8093BC001092DE0204C01092CE
:101030008E020E941402FF91EF91BF91AF919F9198
:101040008F917F916F915F914F913F912F910F9071
:101050000FBE0F901F9018956115710579F0FB0177
:1010600001900020E9F73197AF01461B570BDC01D7
:10107000ED91FC910280F381E02D099480E090E0F5
:1010800008958C01EB0162E671E08CE795E00E9427
:101090002C080E946522C8010E94CC226AE38CE7DA
:1010A00095E00E945219BE0180E090E04AE00E9463
:1010B00089220E9465228CE795E00E949F190E9478
:1010C0002005FFCF8091D702882329F08F3F49F474
:1010D0006BE671E002C06DE671E08BE196E00C9486
:1010E0002C08089588E19EE19093290380932803BA
:1010F0000E94200580E00E94681C0C94970481EFF8
:101100009CE190932903809328030E94200580E0AE
:101110000E94681C0C949704CF93C82F80E00E9413
:101120007C058C2F8F770E9475051EBC00000DB4C6
:1011300007FEFDCFCEB581E00E947C058C2FCF91BC
:101140000895CF93DF93D82FC62F80E00E947C05AF
:101150008D2F80680E9475058C2F0E94750581E097
:10116000DF91CF910C947C05CF93C82F81E00E9432
:101170008C08887F682F6C2B81E0CF910C94A1089C
:10118000CF93DF93EC010E942005E0910B03F091D7
:101190000C03ABE0B3E0309769F0CE17DF0729F41A
:1011A000888199818D939C9315C0DF010190F08116
:1011B000E02DF1CFEDE0F3E080819181009751F0D7
:1011C000C817D90729F4888199819183808302C047
:1011D000FC01F2CFDF91CF910C949704CF92DF9274
:1011E000EF92FF920F931F93CF93DF93EC016A016D
:1011F0007B0189010E942005CE010E94C008CA829D
:10120000DB82EC82FD821F830E8319821882E091BB
:101210000B03F0910C032BE033E03097A9F08281AF
:101220009381A481B5818C199D09AE09BF09181657
:1012300019061A061B061CF4F983E88305C09F01F2
:101240000190F081E02DE9CFF901D183C083DF91D6
:10125000CF911F910F91FF90EF90DF90CF900C9462
:101260009704AF92BF92CF92DF92EF92FF920F93CB
:101270001F93CF93DF93FC0180E1A7ECB2E0ED0177
:1012800019928A95E9F791E09093D6029093C7025C
:10129000EF2809F490E09093CC024093CD02509354
:1012A000CE026093CF027093D0020093D1021093CC
:1012B000D2022093D3023093D40290E1ACEBB4E09D
:1012C00001900D929A95E1F7A501B60184E0DF91B6
:1012D000CF911F910F91FF90EF90DF90CF90BF9033
:1012E000AF900C948905603811F06093B903909128
:1012F000BA03981759F08093BA038091B60390917E
:10130000B70398609093B7038093B6030895CF9383
:101310000E94200580E00E94B4080E94970482E2A7
:1013200093E00E94C0088DE991E0EFE0F3E0DF0177
:101330009C011D9221503040E1F70E94221BC82FD2
:101340000E94221B2C2F30E0322F2227282B309393
:10135000FD032093FC031092B7031092B603109282
:10136000BB0380E8809331041092350488E096EE48
:10137000A3EDB3E38093360490933704A09338042D
:10138000B093390421E020932D0480934A04909374
:101390004B04A0934C04B0934D0483E080933E042F
:1013A0008FEF80933F04CF9108952F923F924F92F9
:1013B0005F926F927F928F929F92AF92BF92CF92E5
:1013C000DF92EF92FF920F931F93CF93DF93CDB7EE
:1013D000DEB762970FB6F894DEBF0FBECDBF809127
:1013E000B6039091B7039C01217C3327232B09F08E
:1013F000C5C640911E0450911F0460912004709155
:101400002104452B462B472BE1F482FD1AC062963E
:101410000FB6F894DEBF0FBECDBFDF91CF911F9105
:101420000F91FF90EF90DF90CF90BF90AF909F9083
:101430008F907F906F905F904F903F902F900C9483
:10144000F2210E9427052B013C018090B603909069
:10145000B7039A8A898A94012270332781FE25C0B6
:101460004091940450919504609196047091970472
:10147000D301C20183589F4FAF4FBF4F841B950BC1
:10148000A60BB70B181619061A061B061CF46AEFF2
:1014900077E0E6C5DB01CA018D579109A109B109C1
:1014A00089839A83AB83BC8304C019821A821B820E
:1014B0001C8289899A898C739927892B09F419C50B
:1014C00029883A8894E229223324A989BA89B3FF6A
:1014D000B9C0E091AA03F091AB03FA87E987809144
:1014E000BA038F7021E030E0490102C0880C991CDA
:1014F0008A95E2F79C868B86AFE0930182011E52AB
:10150000264B34490D871E872F87388BCD84DE8488
:10151000EF84F888EFE0F3E080E090E0B0E02A2F7D
:1015200030E0A901082E02C0559547950A94E2F7CC
:1015300040FF12C0478D50A161A172A14601570121
:10154000841A950AA60AB70A181419041A041B0467
:101550001CF4B82F6A017B010196389684309105FE
:1015600001F72B2F30E03E832D83890153E0000FDC
:10157000111F5A95E1F7F801E15FFC4F268D90E1CC
:101580008B2E912CA12CB12C81E0820F803110F098
:1015900081EF820F282F30E041E050E0082E02C09A
:1015A000440F551F0A94E2F769857A85462357232D
:1015B000452B41F1F901EE0FFF1FE657FC4F40812B
:1015C0005181EB85FC854E235F23452BD9F0220FFB
:1015D000331F220F331FF901E15FFC4F43AD54ADC0
:1015E00065AD76AD43705527662777278416950637
:1015F000A606B70639F4F801E15FFC4F868F8093A9
:10160000AC0310C0915011F0282FBECF81E090E0C4
:101610000D8002C0880F991F0A94E2F78095A823D5
:1016200009F074CFC0920F03D0921003E09211031F
:10163000F092120309891A89177F1093B703009358
:10164000B60308C0C0900F03D0901003E0901103C0
:10165000F09012032091AD038091B6039091B703EF
:10166000211102C090FF12C04091AE035091AF0310
:101670006091B0037091B10397018601041B150BB3
:10168000260B370B37FF02C06A017B019C012270D9
:10169000332781FF27C02114310429F448ED58EB8A
:1016A00065E070E004C044E455E968E070E04C0D8A
:1016B0005D1D6E1D7F1D89809A80AB80BC8048199E
:1016C00059096A097B09141615061606170654F4FB
:1016D00040E1C501B4016C567A4F8D4F9F4F0E9477
:1016E0000C180AC4B301A20143585F4F6F4F7F4FDC
:1016F00046015701841A950AA60AB70AB7FEECC339
:101700009090BA03232809F453C085FF0FC080913D
:10171000BC03815048F0E92DF0E0E752FF4FE4911F
:10172000EF3FB9F39A94F5CF80EC01C080E080934D
:101730005204EFEBF2E0A3E5B4E002E0E73BF00790
:1017400019F082918D93F9CFE7ECF2E0ABE5B4E0CC
:101750002FEB32E02E173F0719F082918D93FACFCD
:101760009091FC038091FD03909363048093640443
:101770000E94D82343E150E062E574E08AE00E94D1
:10178000890560936804709367048093660490935E
:10179000650487E1809351048091FC039091FD03DF
:1017A00001969093FD038093FC0389EC9FE1D8C1DF
:1017B00040912204509123046091240470912504E7
:1017C00040385F4F6F4F7F4FE0F084E893E16296BF
:1017D0000FB6F894DEBF0FBECDBFDF91CF911F9142
:1017E0000F91FF90EF90DF90CF90BF90AF909F90C0
:1017F0008F907F906F905F904F903F902F900C94C0
:10180000FE2370914E0471110DC0009126041091B9
:10181000270420912804309129040F3F1F4F2F4F98
:101820003F4F99F2AC01487155274031510519F0ED
:101830006091C70301C060E0827094708230944070
:1018400089F480E180935A0480913F04B0E18B9F3A
:10185000C001112490913E04892B80935B048AE09F
:1018600090E002C088E090E020913304222341F010
:10187000FC01EE5AFB4F24E02083019610923304C2
:10188000E0913A04EE2371F09C01215F3C4FD901B5
:10189000AD5BBE4FF5E0FC931196E370EC930296BE
:1018A00010923A04209130042223A1F09C01215F80
:1018B0003C4FF901ED5BFE4FA6E0A0833196AFEF00
:1018C000A083D901AB5BBE4FE0912E04EC9303964D
:1018D00010923004E0912F04EE2371F09C01215FFF
:1018E0003C4FD901AD5BBE4FF3E0FC931196E7701E
:1018F000EC93029610922F0420913C04222331F0A5
:10190000FC01EE5AFB4F22E12083019620912C042A
:10191000222339F020912B0427FD10922B041092E2
:101920002C04E0913D04EE2371F09C01215F3C4FBB
:10193000D901AD5BBE4FF1E1FC931196E170EC93E0
:10194000029610923D04E0913404EE2371F09C0164
:10195000215F3C4FD901AD5BBE4FF7E0FC93119680
:10196000E370EC930296109234044031510521F05B
:10197000E5E0E60FE98302C0F4E0F983F82F8980FF
:10198000880EA0E4AA2EA81428F0E1E04031510509
:1019900029F403C0E4E08E2E880EE0E020E42093DA
:1019A000520430912A0440913104432B30912B048E
:1019B0003095232F221F2227221F2295220F220F2C
:1019C000207C38EF3F0F342B232B2093570450916A
:1019D0001E0440911F043091200420912104509353
:1019E00053044093540430935504209356047111CA
:1019F00014C00091260410912704209128043091EE
:101A000029040F5F1F4F2F4F3F4F00932604109361
:101A10002704209328043093290420912604309130
:101A2000270421503109209358043093590410920F
:101A30002A04EE2309F442C02091C603222341F078
:101A400020E820935204711103C021E020934E043A
:101A5000FC01EE5AFB4F2091C50320838C010D5AE7
:101A60001B4F6801A62EB12CA50168EC73E0C801DC
:101A70000E94892B8091C503882319F08EE094E0A1
:101A800002C08EEF93E0A114B104C1F000912604CE
:101A90001091270420912804309129040150110944
:101AA0002109310940911E0450911F0460912004C6
:101AB00070912104E12CF12C0E943109E82DF0E015
:101AC0008F01045011098091260490912704A09160
:101AD0002804B09129040197A109B10960911E045D
:101AE00050911F04409120043091210420E177ECB3
:101AF000E72E72E0F72EF701A22E1192AA94E9F7D1
:101B000079E47093C7021092CC020093D6026093DE
:101B1000CD025093CE024093CF023093D0028093F7
:101B2000D1029093D202A093D302B093D402EEEFED
:101B3000F3E0ACEBB4E001900D922A95E1F7A80137
:101B400062E574E082E00E948905F801EE5AFB4FDD
:101B50006383728381839083809251048EEB9FE133
:101B60009093290380932803E92DF0E0E652FF4F7C
:101B70008491E091BB0300E2E09FF00111248F7992
:101B8000E82BF0931E03E0931D03909220038091B5
:101B9000B6039091B7038F76967F80689860909394
:101BA000B7038093B603A091AC0314E0A19FD001CA
:101BB0001124A15FBC4FDB96CD90DD90ED90FC90A1
:101BC000DE97A09151043E2F3770B0E079F41B9658
:101BD00083E0AA0FBB1F8A95E1F724E234EF0E944D
:101BE0003B2A20E533EC40E050E086C0632F660FCF
:101BF000660F685E353010F490E001C098E003E0B5
:101C0000AA0FBB1F0A95E1F7A61BB1095C96E7FD79
:101C100003C040E150E002C040E050E0A40FB51F17
:101C20004F2F5527452B19F440E050E002C044E106
:101C300050E0A41BB50B1A161B06DCF4691B70E000
:101C4000A60FB71FCD0101970E94FB29AF01A5E0A8
:101C500056954795AA95E1F7437050E04B5F5F4F6B
:101C6000469FC001479F900D569F900D11240896E6
:101C700002C088E090E0880F991F880F991FC196D5
:101C80003F5F73E0F695E7957A95E1F7E3703E1BC9
:101C9000353050F03450E9E0FDE302C0F595E795AA
:101CA0003A95E2F734E002C0E9E0FDE3092E000CCA
:101CB000AA0BBB0B4C015D0104C0880C991CAA1C2B
:101CC000BB1C3A95D2F7A5019401A4E2B4EF0E949F
:101CD0009E299F01F7FF02C02F5F3F4F3595279543
:101CE0008901330F220B330B600F711F821F931F6B
:101CF0009F01FF0F440B550B0E940F2A49015A0107
:101D0000D701C60183709927AA27BB270CEFC022F1
:101D1000C0921703D0921803E0921903F0921A03AD
:101D200043E0880F991F4A95E1F7FC01E15FFC4F02
:101D3000858D80932103A38DB48DA50194010E940C
:101D40009E29DC01CB01840D951DA61DB71D878F33
:101D500090A3A1A3B2A38091AD038823A9F004C0EE
:101D6000220F331F441F551F8A95D2F7DA01C9018C
:101D7000840D951DA61DB71D8093AE039093AF03F0
:101D8000A093B003B093B1030E94200581E00E94AC
:101D90008C08877019F06BE072E061C080911D03C0
:101DA000877009F051C060E181E00E94A10881E0E4
:101DB0000E948C08803119F06DEA71E050C081E01A
:101DC0000E94B40862E082E00E94A10860E883E01B
:101DD0000E94A10861E084E00E94A10869E985E011
:101DE0000E94A10860E085E20E94A10865E086E209
:101DF0000E94A10862E187E20E94A10860ED80E3F1
:101E00000E94A10860E481E30E94A10861EC88E2DD
:101E10000E94A10864E989E20E94A10861EC8AE2BB
:101E20000E94A1080E94551B0E943F1B64E380E4AE
:101E30000E94A108609151046F5F82E30E94A10893
:101E40006091510480E03BC068E881E00E94A108F5
:101E500081E00E948C0887FD05C069ED71E088EB88
:101E600091E000C181E00E94B4080E94A51B0E947D
:101E7000551B8AE00E948C08807F682F68608AE08A
:101E80000E94A1080E943F1B64E389E30E94A1080D
:101E900060EF80E40E94A1086FEF82E10E94A10838
:101EA00067EF81E10E94A10860E08EE00E94A10836
:101EB00060E08DE00E94A1086091510482E20E94DE
:101EC000A108809151040E94242481E00E94880589
:101ED00083E00E94B40806C1232B09F41DC1C1147C
:101EE000D104E104F10459F4C12CD12C7601C3943E
:101EF00006C0232B09F442C1C12CD12C760180915C
:101F0000B6039091B70391FFAFC0B301A20143584C
:101F10005F4F6F4F7F4F4D835E836F837887409114
:101F20004604509147046091480470914904DB01D4
:101F3000CA018D809E80AF80B88488199909AA094A
:101F4000BB09B7FF47C01091400417FD8DC0E1E009
:101F5000F0E000903F0402C0EE0FFF1F0A94E2F78A
:101F60001E0F1093400417FD7FC0A12FB0E020E0AA
:101F700030E345E750E00E949E29DC01CB0127E0D9
:101F8000B595A795979587952A95D1F780904204A6
:101F900090904304A0904404B0904504880E991E8C
:101FA000AA1EBB1E82E08E0F60913E04810F0E942C
:101FB0004818861A970AA80AB90A8092460490928D
:101FC0004704A0924804B092490480911F03809373
:101FD0004104A5CFC114D104E104F10441F0D701BB
:101FE000C601841B950BA60BB70BB7FD95C080915E
:101FF000410480931F034093130350931403609391
:1020000015037093160380914A0490914B04A0919C
:102010004C04B0914D048093170390931803A09340
:102020001903B0931A03E0913E04F0E0E652FF4F2B
:10203000E491F0E0EF77E068F0931E03E0931D0376
:1020400010925104DB01CA0184199509A609B70948
:1020500083389F4FAF4FBF4F0CF089C065E678E0E3
:102060008FE691E00E944108C114D104E104F1041B
:1020700061F0D701C60189809A80AB80BC80881945
:102080009909AA09BB09B7FD47C00E948C1380912A
:10209000930480931F038091940490919504A091E0
:1020A0009604B09197048093130390931403A09324
:1020B0001503B0931603D301C20189809A80AB80C7
:1020C000BC8088199909AA09BB09B7FD49C081EFED
:1020D0009CE190932903809328030E94200580E0CF
:1020E0000E94681C62960FB6F894DEBF0FBECDBF8B
:1020F000DF91CF911F910F91FF90EF90DF90CF90E4
:10210000BF90AF909F908F907F906F905F904F9017
:102110003F902F900C949704B701A6014D57510999
:102120006109710927ED30E182E293E062960FB612
:10213000F894DEBF0FBECDBFDF91CF911F910F91FD
:10214000FF90EF90DF90CF90BF90AF909F908F90D7
:102150007F906F905F904F903F902F900C94EE087F
:102160002FE738E049815A816B817C81DDCF4D5763
:1021700051096109710922E738E0D6CF62960FB69E
:10218000F894DEBF0FBECDBFDF91CF911F910F91AD
:10219000FF90EF90DF90CF90BF90AF909F908F9087
:1021A0007F906F905F904F903F902F9008950C9488
:1021B000D509EFE0F3E021E020934F042685378531
:1021C00020683787268710925104928F818F0E9452
:1021D000200580E00E94681C0C9497044F925F9247
:1021E0006F927F928F929F92AF92BF92CF92DF9227
:1021F000EF92FF920F931F93CF93DF936B017C01BC
:10220000EA0104E0209FF0011124E95BFD4F859075
:102210009590A590B49085E080931F036091C303CF
:102220007091C4036115710509F447C080E090E026
:10223000A70196010E944A2A722E032F142FB52F50
:10224000F62FE72F582E692EA0E00E945B2B84F416
:10225000215031094F4F5F4F6F4F7F4F8F4F9F4F2F
:10226000722E032F142FB52FF62FE72F582E692E1D
:10227000272D302F412F5B2F6F2F7E2F852D962DF1
:1022800000E10E943D2B29013A01AAEFB0E0A5012F
:1022900094010E949E29641575058605970524F40E
:1022A0008FEF80931F0309C0C301B201A501940100
:1022B0000E940F2A2B5F20931F0340910F03509120
:1022C00010036091110370911203C40ED51EE61E17
:1022D000F71ED501C40123E0880F991FAA1FBB1F59
:1022E0002A95D1F7C80ED91EEA1EFB1EA0911F0326
:1022F000B0E0A50194010E949E2997018601061B6A
:10230000170B280B390BB901A80100931303109385
:10231000140320931503309316034D575109610997
:1023200071099E0182E293E0DF91CF911F910F919D
:10233000FF90EF90DF90CF90BF90AF909F908F90E5
:102340007F906F905F904F900C94EE08CF92DF9249
:10235000EF92FF92CF93DF936B017C01EA018091B2
:10236000B6039091B703827096708230944059F40E
:102370000E945F248091B6039091B703926090937E
:10238000B7038093B60380911F03873059F54091BE
:102390000F035091100360911103709112034C0DC3
:1023A0005D1D6E1D7F1DDB01CA010A97A109B109E0
:1023B0008093130390931403A0931503B093160313
:1023C00088E080931F0347585109610971099E01F4
:1023D00082E293E0DF91CF91FF90EF90DF90CF907A
:1023E0000C94EE0820912003AE01C701B601DF91E5
:1023F000CF91FF90EF90DF90CF900C94EE10AFE074
:10240000B3E082E080934F04E0913504F0E0E652BF
:10241000FF4FE491F0E0EF77E0681F96FC93EE93B6
:102420001E974091360450913704609138047091A2
:10243000390418964D935D936D937C931B9710927E
:1024400051040E94200580E00E94681C0C949704AF
:102450000F931F93CF9380915104813131F065ED3B
:1024600073E08FE691E00E94410887E090E00E94CF
:10247000EE242091590430E099272817390709F0F4
:102480007FC082E594E00E949104DC01CB01BB2770
:102490000091B2031091B3032091B4033091B503BE
:1024A00080179107A207B30709F06DC0C0919E0481
:1024B000CC7FC0939E0480911C0380939D048091E7
:1024C0001B0380939C048091130390911403A091AB
:1024D0001503B091160380549342A109B10980936A
:1024E000980490939904A0939A04B0939B0485E573
:1024F00094E00E94910460939F047093A0048093E1
:10250000A1049093A2048C2F816080939E0400917B
:102510006104109162048FE090E00E94EE2408179D
:102520001907A1F58AE594E00E949104BB2797FD65
:10253000BA95A92F982F872F8093A4049093A50470
:10254000A093A604B093A7048DE594E00E949104A3
:10255000BB2797FDBA95A92F982F872F8093A804A2
:102560009093A904A093AA04B093AB0480915A0459
:102570008093A304C360C0939E0482E090E008C0EF
:1025800080E090E005C08FEF9FEF02C081E090E017
:10259000CF911F910F910895CF92DF92EF92FF920A
:1025A000CF93DF93EC010E9427056B017C0197FF1D
:1025B0000EC06DE28CE795E00E94521966277727DE
:1025C000CB016C197D098E099F094AE001C04AE0E0
:1025D0000E9489228FE591E00E94CC22FE01319772
:1025E000EF30F10508F084C0EC5CFF4F0C942E2A0C
:1025F00082E192E07FC082E092E07CC081EF91E0D6
:1026000079C08FED91E076C061E08EE00E94AD254B
:1026100060E08FE00E94AD2584ED91E06BC061E049
:102620008FE00E94AD2560E08EE00E94AD258AEC2F
:1026300091E00E946B2210922C0480E880932B047E
:102640005BC082EC91E056C083EB91E053C082EA1C
:1026500091E050C082E791E00E946B2280914F048C
:1026600087FF04C085E691E00E946B2280915104AF
:10267000882301F18BE591E00E946B226091510467
:1026800070E080E090E04AE00E9489220E9465228A
:1026900089E491E00E946B2280915104813041F4E1
:1026A000E0915004F0E0EE5AFB4F80818093D70216
:1026B0000E9465220E942705AB01BC014059574C7E
:1026C000664C7F4F20E634E088EE92E00E94EE08F0
:1026D00013C08BE391E00EC082E391E00BC084E273
:1026E00091E008C087E191E005C089E091E002C077
:1026F0008BEF90E00E946B22DF91CF91FF90EF90E3
:10270000DF90CF900C94D5090E9487090E94F22196
:102710008CE090E00C94CC12CF93DF93CFE0D3E029
:1027200010925104E091920484E0E89FF00111249A
:10273000E15FFC4F83AD94ADA5ADB6AD8C7F8887CE
:102740009987AA87BB8783E891E19F878E87DF916E
:10275000CF9108950F931F9301970E949104272F03
:10276000382F492F5527A4E6B0E00E949E298B01FF
:102770009C01005C154520473343013C1F4C2A4611
:10278000310518F060E070E0CB011F910F910895C2
:102790002F923F924F925F926F927F928F929F9271
:1027A000AF92BF92CF92DF92EF92FF920F931F935F
:1027B000CF93DF93CDB7DEB729970FB6F894DEBF7E
:1027C0000FBECDBF0091510410E00C30110524F470
:1027D0001092510480E04DC320915204298323704C
:1027E00028872111F5CF3981307E3E83303611F0B4
:1027F000303A71F783E594E00E949104C0901E0482
:10280000D0901F04E0902004F09021046C157D0509
:102810008E059F05E9F6409157044B83242F2F70B6
:10282000A22FB0E0BD83AC834D01B8E08B0E911CAC
:10283000180124E0221A3108281439044CF28214B9
:1028400093046CF4F401EE5AFB4F2081422F50E0C8
:102850005A834983AC81BD8119964D0104C02FEF85
:102860003FEF3A83298340902204509023046090E4
:10287000240470902504209158043091590424199F
:102880003509420E531E611C711C20E1E7ECF2E099
:10289000DF01322F1D923A95E9F739E43093C702F0
:1028A00031E03093CC022092D6026093CD02709337
:1028B000CE028093CF029093D0024092D1025092E8
:1028C000D2026092D3027092D402EEEFF3E0ACEB4E
:1028D000B4E001900D922A95E1F7A10162E574E060
:1028E00082E00E9489058B019C01F101EE5AFB4FA9
:1028F00060817181828193810E94342A06171707B3
:102900002807390709F064CF8091220490912304AD
:10291000A0912404B0912504481659066A067B0646
:10292000E8F484159505A605B7050CF451CF019779
:10293000A109B109481659066A067B0609F048CF75
:1029400080912A04882309F443CF4E81403A09F04C
:102950003FCF81E090E09F838E8317C0D301C201F7
:102960000196A11DB11D8093220490932304A0938E
:102970002404B09325049E81903A11F480E201C0B2
:1029800080E080932A041F821E8280912A04811194
:1029900003C0AB81A4FF09C08091B6039091B70337
:1029A00080619093B7038093B6031092BC0310929A
:1029B0002C0480912B04803819F084EF80932B0431
:1029C00020911D0330911E03822F877090E0FC013F
:1029D000EE0FFF1FE80FF91FEE5DFD4FB3E03695D8
:1029E0002795BA95E1F72370E20FF11DE4918091EC
:1029F0001B03082E000C990B8E1B9109835B9F4FC4
:102A000097FD09C0998788878F3F910524F02EEFA5
:102A100030E039872887488540932E041986188628
:102A200088859985AC81BD818A179B070CF0BBC155
:102A3000E885F985E65AFB4FE0818E2F90E0FC0196
:102A40003297E131F10508F0AEC1ED5BFF4F0C9418
:102A50002E2A88859985039699878887E1CFE8850E
:102A6000F985E55AFB4F1081E885F985E45AFB4F5B
:102A700020813181E885F985E25AFB4F0081A885E4
:102A8000B9851596B987A887B7E8B0932F04802F2A
:102A9000807F09F0DCC12115310509F4D8C180918E
:102AA000AA039091AB03809590958223932300977E
:102AB00009F0CDC1AFE0B3E041E050E0082E02C024
:102AC000440F551F0A94E2F7BA0162237323672B60
:102AD00071F0DB96CD90DD90ED90FC90DE97CD28E7
:102AE000CE28CF2821F440955095242335230196F4
:102AF00014968031910501F73093AB032093AA031C
:102B0000812F82958F70E82FF0E0E652FF4FE4911D
:102B1000EF3F29F490912F049D7F90932F04909183
:102B20002F049F77973059F40F700093B8031F70EC
:102B3000E12FF0E0E95CFD4F64910E94730921E010
:102B400020932C046DCF31E03093300448855985B3
:102B50004F5F5F4F25C1E885F985E55AFB4F10812E
:102B60001F7088859985845A9B4F0E94AA13E12F74
:102B7000F0E0E652FF4FE491EF3F49F052E8509306
:102B80003A04611571058105910559F064C1A0E809
:102B9000A0933A04672B682B692B19F081E8809386
:102BA0003A04A885B9851596B987A88739CFE885ED
:102BB000F985E55AFB4F20812F3F49F48091B603F8
:102BC0009091B70380649093B7038093B6032F70FE
:102BD0002093AD030E9427056093AE037093AF036B
:102BE0008093B0039093B103B1E0B0933304288590
:102BF00039852E5F3F4F40C0E885F985E55AFB4F88
:102C0000D08088859985845A9B4F0E94AA13AB0176
:102C1000BC01E885F985E15AFB4FE08130E830934B
:102C20003404411551056105710511F18E2F82950E
:102C30008F70AFE0B0E0A81BB1092FEF3FEF02C0EB
:102C400036952795AA95E2F7EF708FEF9FEF02C0B8
:102C5000880F991FEA95E2F7282339238D2D0E94CA
:102C60000D25882329F080913404836080933404F7
:102C7000288539852A5F3F4F39872887D1CE8885B7
:102C80009985855A9B4F0E94AA136115710581058C
:102C9000910551F060934A0470934B0480934C0467
:102CA00090934D0481E801C080E880933D0474C096
:102CB0008091B6039091B70381FD6EC0E885F985D8
:102CC000E35AFB4F20812093920482609093B703D4
:102CD0008093B60380913C04811106C061ED74E0DD
:102CE0008FE691E00E944108E885F985E55AFB4F9F
:102CF000808191815EE1589FB001599F700D112430
:102D000080E090E024E234EF40E050E00E94592A55
:102D1000E8EEAE2EF3E0BF2EC12CD12CE12CF12C2D
:102D200000E010E00E94862A59016A018091130395
:102D300090911403A0911503B09116038A0D9B1D69
:102D4000AC1DBD1DAC01BD0146555E406A47710911
:102D5000409398045093990460939A0470939B0451
:102D60001092BE031092BD031092C2031092C103D1
:102D700010923B042CE020939E0433E130939304A3
:102D8000865D9140A109B1098093940490939504C4
:102D9000A0939604B0939704488559854C5F5F4F84
:102DA000598748873DCE2E813F81232B39F54981B4
:102DB0005A814F3F5F4F11F15101A818B9081A14F9
:102DC0001B04E4F4D401AE5ABB4F6D0140911E04C4
:102DD00050911F04609120047091210429813A814F
:102DE000232B19F48EEF93E002C08EE094E0EE24E2
:102DF000E394F12C930182010E94310980914E04E9
:102E0000882359F080914F043B8135FF02C090E840
:102E100001C090E4892B80934F0480914F04498135
:102E20005A814F3F5F4F41F4806280934F048092FC
:102E300050041092510409C0806180934F04809225
:102E40005004822D88198093510481E012C086E8D5
:102E500080932F0455CEB3E8B0933A041093350411
:102E60006093360470933704809338049093390448
:102E700098CE29960FB6F894DEBF0FBECDBFDF9176
:102E8000CF911F910F91FF90EF90DF90CF90BF9067
:102E9000AF909F908F907F906F905F904F903F90FA
:102EA0002F900895CF93DF9390E4EAE4F3E0DF01FD
:102EB0001D929A95E9F790E2EAE8F3E0DF01292F05
:102EC0001D922A95E9F7EAE2F3E0DF011D929A9557
:102ED000E9F727E030E03093AB032093AA03811198
:102EE00002C083E001C080E0CAE4D3E0AAE8B3E016
:102EF00093E0980F2FE330E044E0849FF001112429
:102F0000ED51FF4F459155916591749149935993B6
:102F1000699379932D933D938F5F8913EDCF88EE5D
:102F200093E090932B0380932A03CEE0C0932C036D
:102F30000E94221B8F7080932D0384E690E0909373
:102F4000330380933203C09334030E94221B8F709B
:102F5000809335038AE090E090933B0380933A039B
:102F60008BE180933C030E94221B8F7080933D0372
:102F70000E94270560933E0370933F0380934003B4
:102F80009093410360933603709337038093380323
:102F90009093390360932E0370932F038093300333
:102FA00090933103DF91CF910895CF92DF92EF920A
:102FB000FF92CF93DF93D82F0E94221BC82F0E942D
:102FC000221B2C2F30E0322F2227A901482BCA01C7
:102FD0006C01853254EF950720F024E2C21A24EFE9
:102FE000D20AE12CF12CDD2371F099276D2F70E0CE
:102FF0000E94FB2924E234EFDC010E943B2AC60E2A
:10300000D71EE81EF91EC701B601DF91CF91FF90D0
:10301000EF90DF90CF900895CF92DF92EF92FF92E2
:103020006B017C01842F0E94D517DC01CB018C0D34
:103030009D1DAE1DBF1D2091AD03222399F0C090B0
:10304000AE03D090AF03E090B003F090B1039C01C9
:10305000AD012C193D094E095F091216130614061D
:1030600015068CF48093AE039093AF03A093B00346
:10307000B093B1038091B6039091B70391609093A0
:10308000B7038093B603FF90EF90DF90CF90089541
:103090004F925F926F927F928F929F92AF92BF9268
:1030A000CF92DF92EF92FF92CF93DF93C62FA09142
:1030B000BD03B091BE03C090BF03D090C003811187
:1030C00009C04D01BB0FAA08BB080D2C000CEE086F
:1030D000FF081AC0482F50E09A010E943B2A4B017A
:1030E0005C0187E0B594A794979487948A95D1F76B
:1030F000D6010E943B2A6B017C0197E0F594E7948E
:10310000D794C7949A95D1F7A091C103B091C20307
:1031100020913B0484E0C89FE0011124C95BDD4F8E
:10312000FE01459055906590749030E00E943B2AD6
:103130006C0D7D1D8E1D9F1DA30192010E940F2A03
:103140002B5F20931F03FE012591359145915491EA
:10315000ADEFBFEF0E94452A680D791D8A1D9B1DAA
:10316000DF91CF91FF90EF90DF90CF90BF90AF9025
:103170009F908F907F906F905F904F900895CF9227
:10318000DF92EF92FF920F931F93CF93DF936C0127
:103190007A018B01C0E0D0E0CE15DF0581F0D801C7
:1031A0006D918D01D601ED91FC910190F081E02DA2
:1031B000C6010995892B11F02196EECF7E01C7013A
:1031C000DF91CF911F910F91FF90EF90DF90CF9003
:1031D0000895FC01538D448D252F30E0842F90E01D
:1031E000821B930B541710F0CF9608950197089502
:1031F000FC01918D828D981761F0828DDF01A80FFF
:10320000B11D5D968C91928D9F5F9F73928F90E020
:1032100008958FEF9FEF0895FC01918D828D98178F
:1032200031F0828DE80FF11D858D90E008958FEFCC
:103230009FEF0895FC01918D228D892F90E0805C95
:103240009F4F821B91098F73992708958CE795E012
:103250000E941A1921E0892B09F420E0822F089599
:10326000FC01848DDF01A80FB11DA35ABF4F2C9123
:10327000848D90E001968F739927848FA689B789F2
:103280002C93A089B1898C91837080648C93938DE9
:10329000848D981306C00288F389E02D80818F7D8C
:1032A00080830895EF92FF920F931F93CF93DF9344
:1032B000EC0181E0888F9B8D8C8D981305C0E88987
:1032C000F989808185FD26C0F62E0B8D10E00F5FF9
:1032D0001F4F0F731127E02E8C8DE8120CC00FB614
:1032E00007FCFACFE889F989808185FFF5CFCE0107
:1032F0000E943019F1CF8B8DFE01E80FF11DE35ACA
:10330000FF4FF0829FB7F8940B8FEA89FB89808189
:1033100080620AC09FB7F894EE89FF896083E889CC
:10332000F98980818370806480839FBF81E090E011
:10333000DF91CF911F910F91FF90EF900895CF9360
:10334000DF93EC01888D8823C9F0EA89FB898081AD
:1033500085FD05C0A889B9898C9186FD0FC00FB67F
:1033600007FCF5CF808185FFF2CFA889B9898C91C0
:1033700085FFEDCFCE010E943019E7CFDF91CF91CD
:10338000089580E090E0892B29F00E942619811190
:103390000C94000008950E94842B1F920F920FB688
:1033A0000F9211242F933F938F939F93AF93BF93CB
:1033B0008091030390910403A0910503B09106034B
:1033C0003091020323E0230F2D3720F40196A11D35
:1033D000B11D05C026E8230F0296A11DB11D209343
:1033E00002038093030390930403A0930503B09317
:1033F00006038091070390910803A0910903B091FF
:103400000A030196A11DB11D809307039093080341
:10341000A0930903B0930A03BF91AF919F918F913D
:103420003F912F910F900FBE0F901F9018951F92F4
:103430000F920FB60F9211242F933F934F935F93E8
:103440006F937F938F939F93AF93BF93EF93FF936C
:103450008CE795E00E943019FF91EF91BF91AF91F9
:103460009F918F917F916F915F914F913F912F919C
:103470000F900FBE0F901F9018951F920F920FB6CE
:103480000F9211242F938F939F93EF93FF93E091CB
:103490008C05F0918D058081E0919205F091930566
:1034A00082FD12C09081809195058F5F8F7320916E
:1034B0009605821751F0E0919505F0E0E458FA4F37
:1034C000958F8093950501C08081FF91EF919F9129
:1034D0008F912F910F900FBE0F901F901895CF9244
:1034E000DF92EF92FF92CF930E9427056B017C0140
:1034F00081E00E948C0887FF64C082E10E948C08F2
:1035000083FF0EC082E0C81AD108E108F108C0921A
:103510000F03D0921003E0921103F092120348C0FF
:1035200086FF43C0E0911D03F0911E03CF0123E00D
:10353000969587952A95E1F7837061F4E770F0E03E
:10354000EE0FFF1FE659FD4F85919491C81AD90AD5
:10355000E108F108C0921303D0921403E09215031E
:10356000F09216038DE10E948C0882FF02C082E275
:1035700001C083E10E948C088093510480E10E9485
:103580008C08682F8DE00E94A108809151040E9450
:10359000E42389E10E948C0880931C038AE10E9445
:1035A0008C088D5380931B0303C087FD1092510438
:1035B0006FEF81E10E94A1086FEF82E10E94A108F4
:1035C00033C08EE30E948C08C82F8FE30E948C08C2
:1035D00083FF09C0C0920F03D0921003E092110341
:1035E000F092120321C082FF14C0C0921303D09244
:1035F0001403E0921503F092160382E30E948C08F4
:10360000809351040E94E42310921C0310921B0328
:103610000BC0C2FF03C01092510406C06AE473E0FD
:1036200088EB91E00E94410880E00E94B4088091FC
:10363000280390912903CF91FF90EF90DF90CF90D6
:103640000C94FE239091F202911106C064EE72E098
:1036500088EB91E00E944108903141F440E150E054
:1036600062EF72E080E00E94890590E0E92FF0E0CF
:10367000EE50FD4F80819F5F9093F202089560911C
:103680002103613124F462301CF462E001C06FE078
:103690006F70606889E00E94A1088AE50E948C082A
:1036A000682F64608AE50C94A108AF92BF92CF9214
:1036B000DF92EF92FF920F931F93CF93DF9380914E
:1036C000170390911803A0911903B0911A039C015C
:1036D000AD0160E070E080E090E003E10E94242B07
:1036E000A12CE8E4BE2EF8EECF2EDD24D394E12CFD
:1036F000F12C00E010E00E94B72AC22FB32E6A011D
:103700007B01182FD92F00E10E943F2B622F86E00A
:103710000E94A1082C2F3B2DA601B701812F9D2FC0
:1037200008E00E943F2B622F87E00E94A1086C2FC7
:1037300088E0DF91CF911F910F91FF90EF90DF9084
:10374000CF90BF90AF900C94A108CF93DF9360917E
:103750001D0370911E03D62FD770CB0153E09695B1
:1037600087955A95E1F78370813049F050F08230A7
:1037700051F068E471E088EB91E00E944108C0E8F4
:1037800003C0C0E701C0C0E9CB0145E0969587952D
:103790004A95E1F78370823041F0833041F0813007
:1037A00011F0C26005C0C46003C0C66001C0C8603B
:1037B000672F77276115710521F0C16082E20E94B1
:1037C000A1086C2F8DE10E94A1086D2F6295607F8A
:1037D000605A80911D0387FF64608EE10E94A108FA
:1037E000D550D23068F480911D0390911E0323E0E0
:1037F000969587952A95E1F7837011F46CE001C0E6
:1038000064E086E2DF91CF910C94A108CF93C82F9A
:1038100068E881E00E94A10881E00E948C0887FD91
:1038200006C061E272E088EB91E00E94410881E00D
:103830000E94B408C23049F46AE08DE10E94A108F8
:1038400060E78EE10E94A10804C00E94A51B0E94AF
:10385000551B61E28CE00E94A10860E483E20E94B3
:10386000A10883E30E948C08682F606483E30E94B0
:10387000A10860911F038FE10E94A10864E389E31E
:103880000E94A10860EC80E40E94A1086FEF82E131
:103890000E94A108EC2FF0E0E959FD4F649160957A
:1038A00081E10E94A10880E00E948805C1110CC03E
:1038B0006091130370911403809115039091160386
:1038C0000E943E0586E001C085E0CF910C94B408CB
:1038D000CF93C82F81E00E948C08877019F064E9AB
:1038E00072E009C080911D03877009F06EC0CC237F
:1038F00031F062E672E088EB91E00E94410868E0F6
:1039000081E00E94A10881E00E948C0887FF03C02B
:1039100066E672E0F0CF81E00E94B4080E94551B79
:1039200061E28CE00E94A1086EE18DE00E94A10896
:103930006BE082E10E94A10862E183E10E94A1089C
:103940006AEA8FE10E94A10862E187E20E94A10871
:1039500068ED80E30E94A10860E481E30E94A10871
:1039600061EC88E20E94A10864E989E20E94A10852
:1039700061EC8AE20E94A1086FEF81E20E94A10837
:1039800062E082E00E94A10860E883E00E94A10852
:1039900061E084E00E94A10869E985E00E94A10835
:1039A00068E380E40E94A10880E00E94880560919D
:1039B00013037091140380911503909116030E94D4
:1039C0003E0585E0CF910C94B4088C2FCF910C94D8
:1039D000061C85E090E00C94CC1288E090E00C94FA
:1039E000CC12CF92DF92EF92FF92CF93DF93809130
:1039F0005104882309F47FC0C0909804D0909904A2
:103A0000E0909A04F0909B04C0919E040E942812BA
:103A1000181619060CF06FC0C370D1F48BE08093B8
:103A200093048091980490919904A0919A04B09184
:103A30009B0480589F4EA548BF4F80939404909359
:103A40009504A0939604B0939704C4E0D0E0E0C03E
:103A50002EEED21A8091980490919904C81AD90A2E
:103A600060913B04662379F02091BD033091BE0341
:103A7000C601821B930B70E06F5F7F4F0E94FB2992
:103A80006901C60ED71E20919E0422FD1DC08091A3
:103A9000BD039091BE038C199D0997FF03C09195BA
:103AA000819591099093C0038093BF034091C10316
:103AB0005091C2034817590724F49093C20380938E
:103AC000C103277F20939E04D092BE03C092BD0302
:103AD0001092BC0310923B0480919E04982F9B7F10
:103AE00090939E04837009F06DC066EB77E08FE6DB
:103AF00091E00E944108C090BD03D090BE030D2C00
:103B0000000CEE08FF0880E092E1AAE7B0E0AC010B
:103B1000BD014C195D096E097F098091980490914F
:103B20009904A0919A04B0919B04840F951FA61F3D
:103B3000B71F8093980490939904A0939A04B0932C
:103B40009B04C0909F04D090A004E090A104F0904A
:103B5000A20420E8C20ED11CE11CF11CC0929F04FB
:103B6000D092A004E092A104F092A20420913B0420
:103B70002F5F20933B04BC01CD016C567A4F8D4FD3
:103B80009F4F44E00E940C1880913B04853148F01F
:103B90008091B6039091B70380629093B7038093AE
:103BA000B60380919304853680F08091B60390919E
:103BB000B7038D7D997F9093B7038093B6038BE015
:103BC00090E02EC0C4E0D0E002C0C3E0D0E0C090DE
:103BD0009804D0909904E0909A04F0909B0482E1BC
:103BE000D80E8AE7E81EF11C63E080E00E944818C6
:103BF000C61AD70AE80AF90AC0929404D09295042A
:103C0000E0929604F092970480911F0380939304AE
:103C10008091B6039091B70391FD0E945F24CE017D
:103C2000DF91CF91FF90EF90DF90CF900C94CC126A
:103C300080915104882359F084E080934F040E94BE
:103C4000C813882321F08DE090E00C94CC120C94E2
:103C5000D5098091B60387FD03C063E577E0AFC067
:103C6000809151048111E6C0E0914E04EE2391F160
:103C7000E83070F5EF5FE0934E04F0E0E858FD4F58
:103C800094918091BA03915048F0E82FF0E0E75208
:103C9000FF4FE491EF3FB9F38150F5CF60E80E9408
:103CA000730960911303709114038091150390912F
:103CB000160343E00E940C188091B6039091B7035D
:103CC0008F779093B7038093B6030E94D509B0C055
:103CD00080E601C080E280934F0480912B048038FD
:103CE00019F08F5F80932B041092510410925004AE
:103CF0008091B6039091B7039C0127773093B70367
:103D00002093B60320914F04277061F094FF0AC0FE
:103D100087779F7E9093B7038093B6038FE090E000
:103D20000E94CC128AE090E00E94CC1280912B0479
:103D30008931F4F08091BA03E82FF0E0E752FF4FA9
:103D4000E491EF3F09F0815060E80E9473098CE034
:103D500080932B048091B6039091B70380629061A9
:103D60009093B7038093B6038EE090E00E94CC124C
:103D700020913C04222309F45BC08091B60390910A
:103D8000B70381FF07C082E090E00E94CC1210923E
:103D90003C044EC0215020933C04211149C0409165
:103DA0001E0450911F046091200470912104452B42
:103DB000462B472B11F082FF06C065EE76E08FE6BA
:103DC00091E00E94410886FD33C010929E0410923B
:103DD0002A0410924E048E7781609093B7038093EB
:103DE000B6030E948C130E942705AB01BC014C5DF9
:103DF000594F64487F4F40939804509399046093BF
:103E00009A0470939B04409313035093140360939C
:103E100015037093160323E53FE182E293E00E94CD
:103E2000EE080E94200581E00E94681C0E94970411
:103E300081E008950E94C81381115ACF90914F04D8
:103E400090FF12CF08950C94291ECF92DF92EF922B
:103E5000FF9280915104811120C010924F040E9462
:103E600027056B017C0182E00E94D5172CE6C20E6B
:103E70002CEDD21E22E0E21EF11CAB01BC014C0D68
:103E80005D1D6E1D7F1D23E23FE182E293E0FF9006
:103E9000EF90DF90CF900C94EE08FF90EF90DF90C2
:103EA000CF900C94291E0E94200580E00E94B40847
:103EB0000E94970482E293E00E94C008809151041E
:103EC00081110CC08091B6039091B7038C7F9093C1
:103ED000B7038093B60381E090E04EC00E942812A1
:103EE00018161906BCF0109251040E94200581E0BA
:103EF0000E94681C0E949704409198045091990474
:103F000060919A0470919B0423E53FE182E293E083
:103F10000C94EE081092BE031092BD031092C203DF
:103F20001092C10310923B0480919E048C60809398
:103F30009E048BE08093930480919804909199045F
:103F4000A0919A04B0919B0480589F4EA548BF4F02
:103F50008093940490939504A0939604B09397044F
:103F60008091B6039091B7038E7F82609093B703E0
:103F70008093B60382E090E00C94CC1220912D0443
:103F800030E0A4E2B4EF0E94E02941ED5FE10C943F
:103F9000A61145ED5FE164EB74EC84E090E00C94D5
:103FA000A61189ED9FE10C94D91087ED91E20C9454
:103FB000D9108091510481110EC0A0912D04B0E060
:103FC000119624E234EF0E943B2A2091350440EF01
:103FD0005FE10C94EE100E94291E882371F308956E
:103FE00085E29FE190932903809328030C94FF11AD
:103FF0008AEE91E290932903809328030C94FF1199
:10400000CF92DF92EF92FF920F931F93CF93DF93A4
:1040100080914F0410915104813029F4111103C093
:104020006AE875E006C08091B60387FD06C06BE8BC
:1040300075E08FE691E00E94410811118EC08091D9
:10404000B6039091B70382FD14C085FD03C060E9FB
:1040500075E0EFCF8F759093B7038093B60380918F
:10406000BC038A3018F48F5F8093BC0389E090E032
:1040700092C12091AC032F5F233019F02093AC0341
:1040800002C01092AC0320914E042F5F20934E0487
:1040900020FD0EC02091BA03222361F0E22FF0E050
:1040A000E752FF4FE491EF3F09F021502093BA030C
:1040B000C0E001C0C1E08F77977F9093B7038093F2
:1040C000B6030E9427056B017C0180912E0390911D
:1040D0002F03A0913003B0913103B701A601481B13
:1040E000590B6A0B7B0B77FF02C06C017D018FEFD0
:1040F00090E00090BA0302C0959587950A94E2F784
:104100000E94D517DC01CB0184599342AD4FBF4FBC
:10411000C80ED91EEA1EFB1EC0920F03D0921003D8
:10412000E0921103F0921203CC2ED12CE12CF12C51
:10413000C11103C0C7EDD0E102C0CDEEDCE10E94A9
:104140002705AB01BC014C0D5D1D6E1D7F1D9E0141
:1041500082E293E00E94EE0820C1113141F0113259
:1041600031F080914F0480FF6ACF80E017C18091C9
:104170005204837E8032A9F7C12FD0E00E94D82359
:10418000AE014150510963E574E080E00E94890569
:104190000E94D8232497AE0162E574E08AE00E9471
:1041A00089056B017C01CE5ADB4F688179818A8158
:1041B0009B810E94342AC616D706E806F90689F6BE
:1041C00089E594E00E94910460931E0470931F049B
:1041D000809320049093210486E594E00E9491044A
:1041E000DC01CB01BB278093B2039093B303A09370
:1041F000B403B093B50380E00E945217123108F067
:1042000046C08091FC039091FD03019720E1EEEF01
:10421000F3E0DF01322F1D923A95E9F731E0309358
:10422000FE0336E0E3E5F4E0AFEFB3E001900D927A
:104230003A95E1F78093050490930604EEEFF3E0DE
:10424000AEE0B4E001900D922A95E1F782E0809310
:104250000E040E94D82340E150E06EEF73E080E04E
:104260000E9489050E94D82340E150E06EE074E08E
:1042700080E00E9489058091B6039091B7039C016C
:1042800024723327232BD9F464EE75E0D2CE0FE5E8
:1042900014E0C3E0C8010E94AA13AB01BC014115A0
:1042A00051056105710529F020E030E08C2F0E9456
:1042B0000D25CF5F0D5F1F4FC83061F7A2CF85FF7F
:1042C00011C03091BC032091BA03315048F0E22F65
:1042D000F0E0E752FF4FE491EF3FB9F32150F5CF03
:1042E0002093BA0389759D7F9093B7038093B6039B
:1042F00010924E0410922604109227041092280463
:104300001092290410922204109223041092240483
:10431000109225041092BC031092300410922F04C6
:1043200010922C0410922A041092340410923A0431
:10433000109232041092330410923D041092B8038C
:1043400084EF80932B0488E096EEA3EDB3E3809393
:10435000360490933704A0933804B093390425E0D1
:104360002093920480934A0490934B04A0934C04AE
:10437000B0934D0483E080933E0480915D048F7080
:104380008093350480915E04811101C081E08093A7
:104390002D0486E090E00E94CC1281E0DF91CF9165
:1043A0001F910F91FF90EF90DF90CF900895809133
:1043B000510481110AC02091350448EF5FE168ED96
:1043C00078EB85E090E00C94EE100E9400208823AA
:1043D00091F3089580915104811102C010924F040D
:1043E0000C940020CF92DF92EF92FF9280911E04F6
:1043F00090911F04A0912004B0912104892B8A2B55
:104400008B2B09F05CC08091B6039091B7039C019F
:1044100020793327232B19F06BE277E024C0109228
:10442000AD038E7D977E9093B7038093B603109271
:104430004E041092BC030E94221B63E00E94EF29ED
:104440009093AC038EE08093B90385E08093BA0328
:1044500081E00E9452178091B6039091B70393FFB9
:1044600006C06EEA72E08FE691E00E944108C090BB
:104470002E03D0902F03E0903003F090310388E0BA
:104480000E94D517DC01CB018C0D9D1DAE1DBF1DFB
:1044900080930F0390931003A0931103B093120322
:1044A0008091B6039091B70384609093B703809393
:1044B000B60389EE9CE10E94FE2381E001C080E00A
:1044C000FF90EF90DF90CF90089562E072E08CE76C
:1044D00095E00C942C080F931F93CF93DF938C01DE
:1044E000C0E0D0E0F801EC0FFD1F6491662341F0BD
:1044F0008CE795E00E945219892B11F02196F2CF9A
:104500000E9465228C0F9D1FDF91CF911F910F910B
:1045100008958F929F92AF92BF920F931F93CF9364
:10452000DF93CDB7DEB7A1970FB6F894DEBF0FBE0D
:10453000CDBF19A2423008F44AE08E010F5D1F4F33
:10454000842E912CA12CB12CA50194010E947C29D0
:10455000E62FB901CA0101501109EA3014F4E05DF7
:1045600001C0E95CD801EC93232B242B252B61F7A8
:10457000B8018CE795E00E942C08A1960FB6F8943C
:10458000DEBF0FBECDBFDF91CF911F910F91BF90C6
:10459000AF909F908F900895BC018CE795E00C94AC
:1045A0002C086F927F928F929F92AF92BF92CF9280
:1045B000DF92EF92FF920F931F93CF93DF93CDB7CC
:1045C000DEB768970FB6F894DEBF0FBECDBF8C0183
:1045D0002CE6E22E25E0F22E970180E090E0D80153
:1045E000A80FB91FF90140E05D9150834F5F3496E9
:1045F0004430D1F704962F5F3F4F8031910579F712
:10460000ACEBB4E0FE0131968CEC94E04F012D91BF
:1046100021938A179B07D9F7C4010E94E5067724E6
:10462000739480E7C82E85E0D82E5E0159E1A50E6F
:10463000B11C9BE1692E8CE695E034E0DC0140E0A2
:104640002C91E22FE295EF7050E1E59FF0011124EB
:10465000EE52FD4F2F70E20FF11DE491EC934F5F8E
:104660001496443069F7315001963111E7CF0E941A
:10467000CA06ECE6F5E0CE014596BE016F5E7F4FBF
:104680009F01D9015C91DC015D93CD01452F440F61
:1046900057FD4625DB014C932C5F3F4F6F5F7F4FEB
:1046A000A816B90671F76E89498946275F89288D52
:1046B0008A8985278227942F982791933D899B8902
:1046C0008327892783838C89262723279227982766
:1046D00097833527382743274387CE16DF0659F6B9
:1046E000B401872D0E947206C4010E94E5067394EE
:1046F000BAE07B12A0CF8CE695E034E0DC0140E02C
:104700002C91E22FE295EF7050E1E59FF00111242A
:10471000EE52FD4F2F70E20FF11DE491EC934F5FCD
:104720001496443069F7315001963111E7CF0E9459
:10473000CA06B4018AE00E947206C4010E94E5061E
:104740009801205F3F4FD801F70180E090819D9351
:104750008F5F34968430D1F78FEFE81AF80A0C5F38
:104760001F4F2017310779F768960FB6F894DEBF10
:104770000FBECDBFDF91CF911F910F91FF90EF90B2
:10478000DF90CF90BF90AF909F908F907F906F9071
:104790000895FC0120E1215050F011F0818101C009
:1047A00080E09081990F87FD91609193F4CF0895F7
:1047B000ECEAF4E0ACEBB4E084E0EC3BF80719F091
:1047C00081918D93F9CF0895CF93C82F80E00E94F7
:1047D0007C0580E00E947505E2E5F4E080E08C173E
:1047E00049F01EBC00000DB407FEFDCF9EB59193AD
:1047F0008F5FF5CF81E0CF910C947C05CF93DF9351
:10480000EC010E94200582E293E00E94C008D09350
:104810002903C09328031092230310922203E091EE
:104820000D03F0910E03ADE0B3E0309729F0DF0106
:104830000190F081E02DF9CF82E293E08D939C937B
:10484000DF91CF910C9497040F931F93CF93DF9335
:10485000D82F80E00E947C0580E80E94750502E563
:1048600014E0C0E0CD1739F0F80181918F010E946A
:104870007505CF5FF7CF81E0DF91CF911F910F9149
:104880000C947C058CE795E00E949F19ECE7F5E01D
:10489000A289B3898C918F7E8C93A289B3898C91E4
:1048A000877F8C93A289B3898C918F778C93A2890F
:1048B000B3898C918F7D8C93828D818F0895CF9257
:1048C000DF92EF92FF92CF93DF9380E1ECEBF4E085
:1048D000DF011D928A95E9F788E0EAE5F4E0DF015F
:1048E0001D928A95E9F730919F042091A004909140
:1048F000A1048091A204C2E5D4E03883209353043C
:10490000909354048093550430911E0420911F0409
:1049100090912004809121043093560420935704F1
:10492000909358048093590440E150E0BE0180E028
:104930000E94890540913F0487E090E0841B910923
:104940002FEF3FE002C0359527958A95E2F78881E1
:10495000998128233923C0909804D0909904E0903D
:104960009A04F0909B04B4E9CB0EB5E0DB1EB2E0F4
:10497000EB1EF11CA3E5B7E00E94E029C60ED71E8E
:10498000E81EF91EC0924204D0924304E09244040F
:10499000F09245041092400481E090E001C0880F3D
:1049A0004A95EAF760913E048E5F0E944818C61A45
:1049B000D70AE80AF90AC0924604D0924704E09266
:1049C0004804F092490480911F0380934104DF91D1
:1049D000CF91FF90EF90DF90CF900895DC01E2E55A
:1049E000F4E020E030E080E090E02A173B07A1F0FF
:1049F0004191942748E0BC01660F771F97FF06C0DE
:104A0000CB0151E2852750E1952701C0CB014150F0
:104A100091F72F5F3F4FE9CF0895CF92DF92EF924A
:104A2000FF92CF93DF93A82F803108F065C06A0111
:104A30007B0180ECC81A8DEFD80A81EDE80A83E388
:104A4000F80A81E9C81680EDD80683E0E806F1048B
:104A500010F4426023C06A017B0181EAD81A8CEB12
:104A6000E80A83E3F80A81ECC81687E2D80689E0F1
:104A7000E806F10490F06A017B0180EAC81A81E936
:104A8000D80A86EDE80A83E3F80A81EEC81683E9BE
:104A9000D80684E0E806F10408F44160EA2FF0E06B
:104AA000EF01CC0FDD1FCC0FDD1FC15FDC4F4BAF23
:104AB0005CAF6DAF7EAF2115310519F0922F832FBA
:104AC00002C09FE380E0EE0FFF1FE657FC4F90838C
:104AD000818381E090E002C0880F991FAA95E2F7D8
:104AE0002091AA033091AB03822B932B9093AB03BD
:104AF0008093AA0381E001C080E0DF91CF91FF9015
:104B0000EF90DF90CF900895833081F028F48130CA
:104B100099F08230A1F008958730A9F08830B9F07B
:104B20008430D1F4809180008F7D03C0809180001B
:104B30008F7780938000089584B58F7702C084B505
:104B40008F7D84BD08958091B0008F7703C08091E0
:104B5000B0008F7D8093B00008951F93CF93DF93B3
:104B6000282F30E0F901E254FD4F8491F901E65518
:104B7000FD4FD491F901EA56FD4FC491CC23C1F009
:104B8000162F81110E948425EC2FF0E0EE0FFF1FFD
:104B9000E457FD4FA591B4919FB7F894111104C04B
:104BA0008C91D095D82302C0EC91DE2BDC939FBF73
:104BB000DF91CF911F910895CF93DF9390E0FC0197
:104BC000E655FD4F2491FC01EA56FD4F8491882360
:104BD00061F190E0880F991FFC01EE57FD4FC591E0
:104BE000D491FC01E457FD4FA591B491611109C026
:104BF0009FB7F8948881209582238883EC912E2397
:104C00000BC0623061F49FB7F8948881322F3095E1
:104C100083238883EC912E2B2C939FBF06C08FB7E4
:104C2000F894E8812E2B28838FBFDF91CF910895D0
:104C30003FB7F8948091070390910803A09109036E
:104C4000B0910A0326B5A89B05C02F3F19F0019625
:104C5000A11DB11D3FBFBA2FA92F982F8827820F02
:104C6000911DA11DB11DBC01CD0142E0660F771F52
:104C7000881F991F4A95D1F708958F929F92AF92FE
:104C8000BF92CF92DF92EF92FF926B017C010E9464
:104C900018264B015C01C114D104E104F104F1F0C8
:104CA0000E941826DC01CB0188199909AA09BB09C1
:104CB000883E9340A105B10570F321E0C21AD108E6
:104CC000E108F10888EE880E83E0981EA11CB11C53
:104CD000C114D104E104F10419F7DDCFFF90EF9086
:104CE000DF90CF90BF90AF909F908F900895789471
:104CF00084B5826084BD84B5816084BD85B58260E1
:104D000085BD85B5816085BD80916E008160809391
:104D10006E001092810080918100826080938100FA
:104D2000809181008160809381008091800081600A
:104D3000809380008091B10084608093B100809165
:104D4000B00081608093B00080917A00846080938D
:104D50007A0080917A00826080937A0080917A0054
:104D6000816080937A0080917A00806880937A00D5
:104D70001092C1000E9442241092E2021092E102BD
:104D80001092E0021092DF021092DE0281E0809326
:104D9000DD021092DC0261E082E10E94AD2561E05B
:104DA00083E10E94AD258091B9008E7F8093B90088
:104DB0008091B9008D7F8093B90088E48093B8001A
:104DC00085E48093BC0086E492E09093DB028093BC
:104DD000DA0282E592E09093D9028093D80280E1D2
:104DE0008093BA0088EC92E09093E4028093E3020F
:104DF00082E698E09093E6028093E50261E08EE01F
:104E00000E94DC2561E08FE00E94DC2561E080E10A
:104E10000E94DC258091F002811107C062E370E0FE
:104E200080E090E00E943D26F5CF84E0EBE0F3E0E7
:104E3000DF011D928A95E9F761E08AE00E94DC2596
:104E400005E011E038E0E32E31E0F32EDD24D394C9
:104E5000F80181918F018F3F29F0D092E70260E045
:104E60000E94DC25E016F10699F71FB7F8948091AF
:104E7000F102811127C0E0EAF2E08491E4EBF2E074
:104E80009491E82FF0E0EE0FFF1FEE57FD4FA59134
:104E9000B491EC91E92321F461E08AE00E94AD2510
:104EA00061E08AE00E94DC258CB580618CBD8CB508
:104EB00080648CBD61E08DE00E94DC2561E08BE0C8
:104EC0000E94DC258091F1028F5F8093F1021FBF69
:104ED0000E9420050E942705625C7F4F8F4F9F4FE5
:104EE0000E943E050E942705685C7E4F8F4F9F4FB2
:104EF0000E943E0580E00E94B40882E40E948C0873
:104F0000823131F064EB72E088EB91E00E9441085D
:104F100082E00E94061C81E00E948C088770853028
:104F2000D1F702EF12E088E0C82ED12C8CE20E946B
:104F30008C088170F82E8CE20E948C082F2D30E0B6
:104F40008170C82FF0E0DF2F2C173D0779F3D801CF
:104F500011968C911197880FF82A1196FC92B1E066
:104F6000CB1AD10819F70F5F1F4FE3E001301E077E
:104F7000D1F680E18093F20280E00E94B4080E94A2
:104F8000970480E490E09093B7038093B6030E9467
:104F9000870988EE92E00E9460048091F0028823E5
:104FA000B9F10E942005C0910D03D0910E03209706
:104FB00039F08881998190930E0380930D031FC06F
:104FC000E0910B03F0910C033097C9F0C280D380BD
:104FD000E480F5800E942705C61AD70AE80AF90A74
:104FE0001C141D041E041F0454F0C0910B03D09127
:104FF0000C038881998190930C0380930B030E948A
:105000009704209751F2EE81FF81CE010995C5CF1B
:105010000E94C119C2CFECE7F5E01382128288EE3C
:1050200093E0A0E0B0E084839583A683B7832CE06F
:1050300031E03183208325EC30E03587248724EC70
:1050400030E03787268720EC30E0318B208B21EC55
:1050500030E0338B228B22EC30E0358B248B26EC36
:1050600030E0378B268B118E128E138E148EE9E171
:10507000F6E020E5208321E02183EBE1F6E01382D6
:10508000128284839583A683B7838EE191E0918316
:1050900080830895A0E0B0E0E0E5F8E20C94AA294E
:1050A0005C016B017A016115710519F0FB019183B7
:1050B0008083E114F10429F0C7010297839708F077
:1050C000E5C0E5012196F5011081812F90E00E9455
:1050D0006029892B11F05E01F4CF1D3229F421964D
:1050E000F501118101E007C01B3221F4E501229690
:1050F000F501118100E0E114F10409F1F0E1EF168E
:10510000F10429F43FC010E3E114F10421F128E097
:10511000E216F10401F154F4E2E0EE16F10421F597
:10512000812C912CA12CB0E4BB2E3EC0FAE0EF16EE
:10513000F10439F020E1E216F104B1F430C010338B
:1051400019F1FAE0EF2EF12CACEC8A2E982CA82C59
:10515000ACE0BA2E29C078E0E72EF12C812C912CFE
:10516000A12CE0E1BE2E20C060E070E080E090E87D
:1051700097010F2C000C440B550B0E947C29490110
:105180005A0112C0103359F488818F7D883509F097
:10519000BACF19812296026080E1E82EF12C812C91
:1051A000912CA12C68E0B62E40E060E070E0CB01CD
:1051B00027010F2C000C66087708FE0150ED352EF4
:1051C000310E29E0231570F42FEB210F2A3118F44A
:1051D00039EC332E06C02FE9210F2A3118F529EAC0
:1051E000322E310E232D30E02E153F05DCF447FD25
:1051F00016C086169706A806B90670F0A30192019C
:105200000E946C29630D711D811D911D6130710516
:10521000810520E8920710F04FEF01C041E0219690
:105220001081CBCF202F2170C114D10471F0442301
:1052300029F02197F601D183C08307C001FF19C06F
:105240002297F601D183C08314C047FF12C02223E6
:1052500029F060E070E080E090E804C06FEF7FEF3D
:105260008FEF9FE722E230E0309328062093270655
:1052700009C0222381F090958095709561957F4FAC
:105280008F4F9F4F462F372F282F12C040E030E01E
:1052900020E090E00DC097FFF5CF82E290E0909380
:1052A0002806809327066FEF7FEF8FEF9FE7EACF07
:1052B000642F732F822FCDB7DEB7E1E10C94C6299E
:1052C00091110C946929803219F089508550C8F7E2
:1052D0000895992788270895DB018F939F930E9453
:1052E0009E29BF91AF91A29F800D911DA39F900D0C
:1052F000B29F900D11240895A1E21A2EAA1BBB1B88
:10530000FD010DC0AA1FBB1FEE1FFF1FA217B30791
:10531000E407F50720F0A21BB30BE40BF50B661FA7
:10532000771F881F991F1A9469F76095709580956B
:1053300090959B01AC01BD01CF0108950E94E02929
:10534000A59F900DB49F900DA49F800D911D1124D9
:1053500008952F923F924F925F926F927F928F9219
:105360009F92AF92BF92CF92DF92EF92FF920F93F4
:105370001F93CF93DF93CDB7DEB7CA1BDB0B0FB6FE
:10538000F894DEBF0FBECDBF09942A8839884888BB
:105390005F846E847D848C849B84AA84B984C88451
:1053A000DF80EE80FD800C811B81AA81B981CE0F48
:1053B000D11D0FB6F894DEBF0FBECDBFED0108952D
:1053C000A29FB001B39FC001A39F700D811D112446
:1053D000911DB29F700D811D1124911D0895991B7F
:1053E00079E004C0991F961708F0961B881F7A95DC
:1053F000C9F78095089597FB072E16F4009407D0FF
:1054000077FD09D00E94672B07FC05D03EF49095EC
:1054100081959F4F0895709561957F4F0895052E52
:1054200097FB1EF400940E94262A57FD07D00E9485
:105430007C2907FC03D04EF40C94262A5095409505
:10544000309521953F4F4F4F5F4F08959095809530
:10545000709561957F4F8F4F9F4F0895EE0FFF1FFF
:105460000590F491E02D09946927962769277827FC
:105470008727782708950E94E029B7FF0895821BA7
:10548000930B0895B7FF0C949E290E949E29821BBE
:10549000930B089597FB57FF0C945A2A9F938F9371
:1054A0000E945A2A6E1B7F0BAF91BF918A0B9B0BF8
:1054B0000895E894DF93CF93FC01DB010E94E0297B
:1054C0007F936F93E9019A01AC01BF93AF933F9330
:1054D0002F93DF010E94E02926F46C1B7D0B820BC9
:1054E000930B9E01EB01FC010E947B2BAF91BF91BE
:1054F0002F913F910E947B2BBE01CF01F9012F918B
:105500003F91CF91DF910895689401C0E894F92FFD
:10551000F12B12F00C94B82AA0E0B0E0E2E9FAE234
:105520000C94AF29092E059422F40E94142B112308
:1055300092F4F0E80F26FFEFE094F09400951095B8
:10554000B094C094D094A194BF0ACF0ADF0AEF0AA6
:10555000FF0A0F0B1F0B0E94C32A07FC0E94142B8B
:10556000CDB7DEB7ECE00C94CB29689401C0E89489
:105570008F929F92CF93DF930E94C32ADF91CF91A6
:105580009F908F90089588249924F401E401B0E459
:105590009F93AA279A158B049C04ED05FE05CF0561
:1055A000D007A10798F4AD2FDC2FCF2FFE2FE92DC8
:1055B000982C892E982F872F762F652F542F432FC5
:1055C000322F2227B85031F7BF9127C01B2EBF9131
:1055D000BB27220F331F441F551F661F771F881FCD
:1055E000991F881C991CEE1FFF1FCC1FDD1FAA1FCF
:1055F000BB1F8A149B04EC05FD05CE05DF05A00743
:10560000B10748F08A189B08EC09FD09CE09DF09AB
:10561000A00BB10B21601A94E1F62EF49401AF01B6
:10562000BE01CD01000C0895609570958095909510
:1056300030954095509521953F4F4F4F5F4F6F4F9D
:105640007F4F8F4F9F4F08950F93083090F0982F02
:10565000872F762F652F542F432F322F2227085064
:10566000F4CF220F331F441F551F661F771F881F5B
:10567000991F0A95B2F70F91089597FB10F81694A9
:1056800000080F93083098F00850232F342F452F2F
:10569000562F672F782F892F902DF4CF059497954B
:1056A00087957795679557954795379527950A95E7
:1056B000AAF70F9108950024A7FD00942A1730053A
:1056C0004005500560057005800590050895AA1BEA
:1056D000BB1B51E107C0AA1FBB1FA617B70710F0DD
:1056E000A61BB70B881F991F5A95A9F7809590950F
:1056F000BC01CD0108950E94E029460F571FC81F25
:10570000D91F08F43196089581E090E0F8940C9444
:10571000452EFB01DC0102C001900D92415050402A
:10572000D8F70895AEE0B0E0E8E9FBE20C94B729C1
:105730000D891E8986E08C831A8309838FEF9FE78A
:105740009E838D83AE01475E5F4F6F89788DCE015A
:1057500001960E94B42BEF81F885E00FF11F1082B3
:105760002E96E4E00C94D329ABE0B0E0EAEBFBE248
:105770000C94A9296C017B018A01FC011782168215
:10578000838181FFCCC1CE0101963C01F60193815A
:10579000F70193FD859193FF81917F01882309F49F
:1057A000BAC1853239F493FD859193FF81917F01D0
:1057B000853229F4B60190E00E94AB2DE7CF912C01
:1057C000212C312CFFE1F315D8F08B3279F038F42D
:1057D000803279F08332A1F4232D20611DC08D32F7
:1057E00061F0803369F4232D216016C0832D82601F
:1057F000382EE32DE4603E2E2AC0F32DF8601DC044
:1058000037FC2DC020ED280F2A3040F08E32B9F43D
:1058100036FC81C1232D2064322E19C036FE06C00D
:105820008AE0989E200D1124922E11C0EAE02E9E4F
:10583000200D1124222EF32DF0623F2E08C08C364D
:1058400021F4832D8068382E02C0883641F4F70198
:1058500093FD859193FF81917F018111B3CF982FA3
:105860009F7D9554933028F40C5F1F4F9FE39983DD
:105870000DC0833631F0833771F0833509F059C09C
:1058800021C0F801808189830E5F1F4F8824839493
:10589000912C530113C02801F2E04F0E511CF80166
:1058A000A080B18036FE03C0692D70E002C06FEFAA
:1058B0007FEFC5010E94A02D4C018201F32DFF77DF
:1058C0003F2E16C0280122E0420E511CF801A08094
:1058D000B18036FE03C0692D70E002C06FEF7FEF2C
:1058E000C5010E94952D4C01F32DF0683F2E8201D9
:1058F00033FC1BC0822D90E088169906B0F4B601E7
:1059000080E290E00E94AB2D2A94F4CFF50137FCA1
:10591000859137FE81915F01B60190E00E94AB2D29
:1059200021102A9421E0821A91088114910471F7C0
:10593000E8C0843611F0893641F5F80137FE07C01A
:1059400060817181828193810C5F1F4F08C06081EB
:105950007181072E000C880B990B0E5F1F4FF32DE2
:10596000FF763F2E97FF09C09095809570956195C1
:105970007F4F8F4F9F4FF0683F2E2AE030E0A3010A
:105980000E94E72D882E861845C0853731F4232DD7
:105990002F7EB22E2AE030E025C0932D997FB92EBC
:1059A0008F36C1F018F4883579F0B5C0803719F01A
:1059B000883721F0B0C0E92FE061BE2EB4FE0DC0E3
:1059C000FB2DF460BF2E09C034FE0AC0292F2660CB
:1059D000B22E06C028E030E005C020E130E002C071
:1059E00020E132E0F801B7FE07C060817181828159
:1059F00093810C5F1F4F06C06081718180E090E051
:105A00000E5F1F4FA3010E94E72D882E8618FB2DE5
:105A1000FF773F2E36FE0DC0232D2E7FA22E891438
:105A200058F434FE0BC032FC09C0832D8E7EA82EA4
:105A300005C0B82CA32C03C0B82C01C0B92CA4FEFF
:105A40000FC0FE01E80DF11D8081803321F49A2DF5
:105A5000997EA92E09C0A2FE06C0B394B39404C0D7
:105A60008A2D867809F0B394A3FC11C0A0FE06C06D
:105A7000B21488F4280C922C9B180EC0B21460F457
:105A8000B60180E290E00E94AB2DB394F7CFB21440
:105A900018F42B1802C0982C212CA4FE10C0B601BB
:105AA00080E390E00E94AB2DA2FE17C0A1FC03C0D2
:105AB00088E790E002C088E590E0B6010CC08A2D2E
:105AC000867859F0A1FE02C08BE201C080E2A7FCFB
:105AD0008DE2B60190E00E94AB2D891438F4B60136
